{
  "_format": "hh-sol-artifact-1",
  "contractName": "NameAndAge",
  "sourceName": "contracts/NameAndAge.sol",
  "abi": [
    {
      "inputs": [],
      "name": "ChangeAge",
      "outputs": [],
      "stateMutability": "nonpayable",
      "type": "function"
    },
    {
      "inputs": [],
      "name": "age",
      "outputs": [
        {
          "internalType": "uint256",
          "name": "",
          "type": "uint256"
        }
      ],
      "stateMutability": "view",
      "type": "function"
    },
    {
      "inputs": [],
      "name": "changeName",
      "outputs": [],
      "stateMutability": "nonpayable",
      "type": "function"
    },
    {
      "inputs": [],
      "name": "name",
      "outputs": [
        {
          "internalType": "string",
          "name": "",
          "type": "string"
        }
      ],
      "stateMutability": "view",
      "type": "function"
    }
  ],
  "bytecode": "0x60806040526040518060400160405280600b81526020017f53756861734c696e67616d000000000000000000000000000000000000000000815250600090816200004a9190620002de565b5060156001553480156200005d57600080fd5b50620003c5565b600081519050919050565b7f4e487b7100000000000000000000000000000000000000000000000000000000600052604160045260246000fd5b7f4e487b7100000000000000000000000000000000000000000000000000000000600052602260045260246000fd5b60006002820490506001821680620000e657607f821691505b602082108103620000fc57620000fb6200009e565b5b50919050565b60008190508160005260206000209050919050565b60006020601f8301049050919050565b600082821b905092915050565b600060088302620001667fffffffffffffffffffffffffffffffffffffffffffffffffffffffffffffffff8262000127565b62000172868362000127565b95508019841693508086168417925050509392505050565b6000819050919050565b6000819050919050565b6000620001bf620001b9620001b3846200018a565b62000194565b6200018a565b9050919050565b6000819050919050565b620001db836200019e565b620001f3620001ea82620001c6565b84845462000134565b825550505050565b600090565b6200020a620001fb565b62000217818484620001d0565b505050565b5b818110156200023f576200023360008262000200565b6001810190506200021d565b5050565b601f8211156200028e57620002588162000102565b620002638462000117565b8101602085101562000273578190505b6200028b620002828562000117565b8301826200021c565b50505b505050565b600082821c905092915050565b6000620002b36000198460080262000293565b1980831691505092915050565b6000620002ce8383620002a0565b9150826002028217905092915050565b620002e98262000064565b67ffffffffffffffff8111156200030557620003046200006f565b5b620003118254620000cd565b6200031e82828562000243565b600060209050601f83116001811462000356576000841562000341578287015190505b6200034d8582620002c0565b865550620003bd565b601f198416620003668662000102565b60005b82811015620003905784890151825560018201915060208501945060208101905062000369565b86831015620003b05784890151620003ac601f891682620002a0565b8355505b6001600288020188555050505b505050505050565b6105af80620003d56000396000f3fe608060405234801561001057600080fd5b506004361061004c5760003560e01c806306fdde0314610051578063262a9dff1461006f578063d9a7430e1461008d578063ecf5a8eb14610097575b600080fd5b6100596100a1565b6040516100669190610216565b60405180910390f35b61007761012f565b6040516100849190610251565b60405180910390f35b610095610135565b005b61009f61017c565b005b600080546100ae9061029b565b80601f01602080910402602001604051908101604052809291908181526020018280546100da9061029b565b80156101275780601f106100fc57610100808354040283529160200191610127565b820191906000526020600020905b81548152906001019060200180831161010a57829003601f168201915b505050505081565b60015481565b6040518060400160405280601381526020017f53756861735372696e697661734c696e67616d000000000000000000000000008152506000908161017991906104a7565b50565b6013600181905550565b600081519050919050565b600082825260208201905092915050565b60005b838110156101c05780820151818401526020810190506101a5565b60008484015250505050565b6000601f19601f8301169050919050565b60006101e882610186565b6101f28185610191565b93506102028185602086016101a2565b61020b816101cc565b840191505092915050565b6000602082019050818103600083015261023081846101dd565b905092915050565b6000819050919050565b61024b81610238565b82525050565b60006020820190506102666000830184610242565b92915050565b7f4e487b7100000000000000000000000000000000000000000000000000000000600052602260045260246000fd5b600060028204905060018216806102b357607f821691505b6020821081036102c6576102c561026c565b5b50919050565b7f4e487b7100000000000000000000000000000000000000000000000000000000600052604160045260246000fd5b60008190508160005260206000209050919050565b60006020601f8301049050919050565b600082821b905092915050565b60006008830261035d7fffffffffffffffffffffffffffffffffffffffffffffffffffffffffffffffff82610320565b6103678683610320565b95508019841693508086168417925050509392505050565b6000819050919050565b60006103a461039f61039a84610238565b61037f565b610238565b9050919050565b6000819050919050565b6103be83610389565b6103d26103ca826103ab565b84845461032d565b825550505050565b600090565b6103e76103da565b6103f28184846103b5565b505050565b5b818110156104165761040b6000826103df565b6001810190506103f8565b5050565b601f82111561045b5761042c816102fb565b61043584610310565b81016020851015610444578190505b61045861045085610310565b8301826103f7565b50505b505050565b600082821c905092915050565b600061047e60001984600802610460565b1980831691505092915050565b6000610497838361046d565b9150826002028217905092915050565b6104b082610186565b67ffffffffffffffff8111156104c9576104c86102cc565b5b6104d3825461029b565b6104de82828561041a565b600060209050601f83116001811461051157600084156104ff578287015190505b610509858261048b565b865550610571565b601f19841661051f866102fb565b60005b8281101561054757848901518255600182019150602085019450602081019050610522565b868310156105645784890151610560601f89168261046d565b8355505b6001600288020188555050505b50505050505056fea2646970667358221220916f3716caab85fcd2815a5b0de5fd2d786c110e68c6d45cd13f2bcfae05328c64736f6c63430008170033",
  "linkReferences": {},
  "deployedLinkReferences": {}
}