{
  "_format": "hh-sol-artifact-1",
  "contractName": "NameAndAge",
  "sourceName": "contracts/NameAndAge.sol",
  "abi": [
    {
      "inputs": [],
      "stateMutability": "nonpayable",
      "type": "constructor"
    },
    {
      "inputs": [],
      "name": "ChangeAge",
      "outputs": [],
      "stateMutability": "nonpayable",
      "type": "function"
    },
    {
      "inputs": [],
      "name": "age",
      "outputs": [
        {
          "internalType": "uint256",
          "name": "",
          "type": "uint256"
        }
      ],
      "stateMutability": "view",
      "type": "function"
    },
    {
      "inputs": [],
      "name": "changeName",
      "outputs": [],
      "stateMutability": "nonpayable",
      "type": "function"
    },
    {
      "inputs": [],
      "name": "getBal",
      "outputs": [
        {
          "internalType": "uint256",
          "name": "",
          "type": "uint256"
        }
      ],
      "stateMutability": "view",
      "type": "function"
    },
    {
      "inputs": [],
      "name": "name",
      "outputs": [
        {
          "internalType": "string",
          "name": "",
          "type": "string"
        }
      ],
      "stateMutability": "view",
      "type": "function"
    },
    {
      "inputs": [],
      "name": "owner",
      "outputs": [
        {
          "internalType": "address payable",
          "name": "",
          "type": "address"
        }
      ],
      "stateMutability": "view",
      "type": "function"
    }
  ],
  "bytecode": "0x60806040526040518060400160405280600b81526020017f53756861734c696e67616d000000000000000000000000000000000000000000815250600090816200004a91906200031f565b5060156001553480156200005d57600080fd5b5033600260006101000a81548173ffffffffffffffffffffffffffffffffffffffff021916908373ffffffffffffffffffffffffffffffffffffffff16021790555062000406565b600081519050919050565b7f4e487b7100000000000000000000000000000000000000000000000000000000600052604160045260246000fd5b7f4e487b7100000000000000000000000000000000000000000000000000000000600052602260045260246000fd5b600060028204905060018216806200012757607f821691505b6020821081036200013d576200013c620000df565b5b50919050565b60008190508160005260206000209050919050565b60006020601f8301049050919050565b600082821b905092915050565b600060088302620001a77fffffffffffffffffffffffffffffffffffffffffffffffffffffffffffffffff8262000168565b620001b3868362000168565b95508019841693508086168417925050509392505050565b6000819050919050565b6000819050919050565b600062000200620001fa620001f484620001cb565b620001d5565b620001cb565b9050919050565b6000819050919050565b6200021c83620001df565b620002346200022b8262000207565b84845462000175565b825550505050565b600090565b6200024b6200023c565b6200025881848462000211565b505050565b5b8181101562000280576200027460008262000241565b6001810190506200025e565b5050565b601f821115620002cf57620002998162000143565b620002a48462000158565b81016020851015620002b4578190505b620002cc620002c38562000158565b8301826200025d565b50505b505050565b600082821c905092915050565b6000620002f460001984600802620002d4565b1980831691505092915050565b60006200030f8383620002e1565b9150826002028217905092915050565b6200032a82620000a5565b67ffffffffffffffff811115620003465762000345620000b0565b5b6200035282546200010e565b6200035f82828562000284565b600060209050601f83116001811462000397576000841562000382578287015190505b6200038e858262000301565b865550620003fe565b601f198416620003a78662000143565b60005b82811015620003d157848901518255600182019150602085019450602081019050620003aa565b86831015620003f15784890151620003ed601f891682620002e1565b8355505b6001600288020188555050505b505050505050565b6106a280620004166000396000f3fe608060405234801561001057600080fd5b50600436106100625760003560e01c806306fdde031461006757806325caa26214610085578063262a9dff146100a35780638da5cb5b146100c1578063d9a7430e146100df578063ecf5a8eb146100e9575b600080fd5b61006f6100f3565b60405161007c91906102ad565b60405180910390f35b61008d610181565b60405161009a91906102e8565b60405180910390f35b6100ab6101a0565b6040516100b891906102e8565b60405180910390f35b6100c96101a6565b6040516100d69190610344565b60405180910390f35b6100e76101cc565b005b6100f1610213565b005b600080546101009061038e565b80601f016020809104026020016040519081016040528092919081815260200182805461012c9061038e565b80156101795780601f1061014e57610100808354040283529160200191610179565b820191906000526020600020905b81548152906001019060200180831161015c57829003601f168201915b505050505081565b60003373ffffffffffffffffffffffffffffffffffffffff1631905090565b60015481565b600260009054906101000a900473ffffffffffffffffffffffffffffffffffffffff1681565b6040518060400160405280601381526020017f53756861735372696e697661734c696e67616d0000000000000000000000000081525060009081610210919061059a565b50565b6013600181905550565b600081519050919050565b600082825260208201905092915050565b60005b8381101561025757808201518184015260208101905061023c565b60008484015250505050565b6000601f19601f8301169050919050565b600061027f8261021d565b6102898185610228565b9350610299818560208601610239565b6102a281610263565b840191505092915050565b600060208201905081810360008301526102c78184610274565b905092915050565b6000819050919050565b6102e2816102cf565b82525050565b60006020820190506102fd60008301846102d9565b92915050565b600073ffffffffffffffffffffffffffffffffffffffff82169050919050565b600061032e82610303565b9050919050565b61033e81610323565b82525050565b60006020820190506103596000830184610335565b92915050565b7f4e487b7100000000000000000000000000000000000000000000000000000000600052602260045260246000fd5b600060028204905060018216806103a657607f821691505b6020821081036103b9576103b861035f565b5b50919050565b7f4e487b7100000000000000000000000000000000000000000000000000000000600052604160045260246000fd5b60008190508160005260206000209050919050565b60006020601f8301049050919050565b600082821b905092915050565b6000600883026104507fffffffffffffffffffffffffffffffffffffffffffffffffffffffffffffffff82610413565b61045a8683610413565b95508019841693508086168417925050509392505050565b6000819050919050565b600061049761049261048d846102cf565b610472565b6102cf565b9050919050565b6000819050919050565b6104b18361047c565b6104c56104bd8261049e565b848454610420565b825550505050565b600090565b6104da6104cd565b6104e58184846104a8565b505050565b5b81811015610509576104fe6000826104d2565b6001810190506104eb565b5050565b601f82111561054e5761051f816103ee565b61052884610403565b81016020851015610537578190505b61054b61054385610403565b8301826104ea565b50505b505050565b600082821c905092915050565b600061057160001984600802610553565b1980831691505092915050565b600061058a8383610560565b9150826002028217905092915050565b6105a38261021d565b67ffffffffffffffff8111156105bc576105bb6103bf565b5b6105c6825461038e565b6105d182828561050d565b600060209050601f83116001811461060457600084156105f2578287015190505b6105fc858261057e565b865550610664565b601f198416610612866103ee565b60005b8281101561063a57848901518255600182019150602085019450602081019050610615565b868310156106575784890151610653601f891682610560565b8355505b6001600288020188555050505b50505050505056fea2646970667358221220c4e72ca33ff8c9d3fb862beb0bb17947de97367d2c9bbca6e759e9a64209bb1264736f6c63430008170033",
  "linkReferences": {},
  "deployedLinkReferences": {}
}